{
  "contractName": "Marketplace",
  "abi": [
    {
      "inputs": [],
      "stateMutability": "nonpayable",
      "type": "constructor"
    },
    {
      "anonymous": false,
      "inputs": [
        {
          "indexed": false,
          "internalType": "uint256",
          "name": "id",
          "type": "uint256"
        },
        {
          "indexed": false,
          "internalType": "string",
          "name": "name",
          "type": "string"
        },
        {
          "indexed": false,
          "internalType": "string",
          "name": "nameimg",
          "type": "string"
        },
        {
          "indexed": false,
          "internalType": "string",
          "name": "desc",
          "type": "string"
        },
        {
          "indexed": false,
          "internalType": "uint256",
          "name": "price",
          "type": "uint256"
        },
        {
          "indexed": false,
          "internalType": "address payable",
          "name": "owner",
          "type": "address"
        },
        {
          "indexed": false,
          "internalType": "bool",
          "name": "purchased",
          "type": "bool"
        }
      ],
      "name": "ProductCreated",
      "type": "event"
    },
    {
      "anonymous": false,
      "inputs": [
        {
          "indexed": false,
          "internalType": "uint256",
          "name": "id",
          "type": "uint256"
        },
        {
          "indexed": false,
          "internalType": "string",
          "name": "name",
          "type": "string"
        },
        {
          "indexed": false,
          "internalType": "string",
          "name": "nameimg",
          "type": "string"
        },
        {
          "indexed": false,
          "internalType": "string",
          "name": "desc",
          "type": "string"
        },
        {
          "indexed": false,
          "internalType": "uint256",
          "name": "price",
          "type": "uint256"
        },
        {
          "indexed": false,
          "internalType": "address payable",
          "name": "owner",
          "type": "address"
        },
        {
          "indexed": false,
          "internalType": "bool",
          "name": "purchased",
          "type": "bool"
        }
      ],
      "name": "ProductPurchased",
      "type": "event"
    },
    {
      "inputs": [],
      "name": "name",
      "outputs": [
        {
          "internalType": "string",
          "name": "",
          "type": "string"
        }
      ],
      "stateMutability": "view",
      "type": "function",
      "constant": true
    },
    {
      "inputs": [],
      "name": "productCount",
      "outputs": [
        {
          "internalType": "uint256",
          "name": "",
          "type": "uint256"
        }
      ],
      "stateMutability": "view",
      "type": "function",
      "constant": true
    },
    {
      "inputs": [
        {
          "internalType": "uint256",
          "name": "",
          "type": "uint256"
        },
        {
          "internalType": "uint256",
          "name": "",
          "type": "uint256"
        }
      ],
      "name": "productTransactions",
      "outputs": [
        {
          "internalType": "address",
          "name": "buyer",
          "type": "address"
        },
        {
          "internalType": "uint256",
          "name": "price",
          "type": "uint256"
        },
        {
          "internalType": "uint256",
          "name": "timestamp",
          "type": "uint256"
        }
      ],
      "stateMutability": "view",
      "type": "function",
      "constant": true
    },
    {
      "inputs": [
        {
          "internalType": "uint256",
          "name": "",
          "type": "uint256"
        }
      ],
      "name": "products",
      "outputs": [
        {
          "internalType": "uint256",
          "name": "id",
          "type": "uint256"
        },
        {
          "internalType": "string",
          "name": "name",
          "type": "string"
        },
        {
          "internalType": "string",
          "name": "nameimg",
          "type": "string"
        },
        {
          "internalType": "string",
          "name": "desc",
          "type": "string"
        },
        {
          "internalType": "uint256",
          "name": "price",
          "type": "uint256"
        },
        {
          "internalType": "address payable",
          "name": "owner",
          "type": "address"
        },
        {
          "internalType": "bool",
          "name": "purchased",
          "type": "bool"
        }
      ],
      "stateMutability": "view",
      "type": "function",
      "constant": true
    },
    {
      "inputs": [
        {
          "internalType": "string",
          "name": "_name",
          "type": "string"
        },
        {
          "internalType": "string",
          "name": "_nameimg",
          "type": "string"
        },
        {
          "internalType": "string",
          "name": "_desc",
          "type": "string"
        },
        {
          "internalType": "uint256",
          "name": "_price",
          "type": "uint256"
        }
      ],
      "name": "createProduct",
      "outputs": [],
      "stateMutability": "nonpayable",
      "type": "function"
    },
    {
      "inputs": [
        {
          "internalType": "uint256",
          "name": "_id",
          "type": "uint256"
        }
      ],
      "name": "purchaseProduct",
      "outputs": [],
      "stateMutability": "payable",
      "type": "function",
      "payable": true
    },
    {
      "inputs": [
        {
          "internalType": "uint256",
          "name": "_id",
          "type": "uint256"
        },
        {
          "internalType": "string",
          "name": "_newName",
          "type": "string"
        },
        {
          "internalType": "string",
          "name": "_newNameimg",
          "type": "string"
        },
        {
          "internalType": "string",
          "name": "_newDesc",
          "type": "string"
        },
        {
          "internalType": "uint256",
          "name": "_newPrice",
          "type": "uint256"
        }
      ],
      "name": "editProduct",
      "outputs": [],
      "stateMutability": "nonpayable",
      "type": "function"
    },
    {
      "inputs": [
        {
          "internalType": "uint256",
          "name": "_id",
          "type": "uint256"
        }
      ],
      "name": "removeProduct",
      "outputs": [],
      "stateMutability": "nonpayable",
      "type": "function"
    },
    {
      "inputs": [
        {
          "internalType": "uint256",
          "name": "_id",
          "type": "uint256"
        }
      ],
      "name": "getTransactionHistory",
      "outputs": [
        {
          "components": [
            {
              "internalType": "address",
              "name": "buyer",
              "type": "address"
            },
            {
              "internalType": "uint256",
              "name": "price",
              "type": "uint256"
            },
            {
              "internalType": "uint256",
              "name": "timestamp",
              "type": "uint256"
            }
          ],
          "internalType": "struct Marketplace.Transaction[]",
          "name": "",
          "type": "tuple[]"
        }
      ],
      "stateMutability": "view",
      "type": "function",
      "constant": true
    }
  ],
  "bytecode": "0x608060405260006001553480156200001657600080fd5b506040518060400160405280600b81526020017f4d61726b6574706c61636500000000000000000000000000000000000000000081525060009080519060200190620000649291906200006b565b5062000180565b82805462000079906200014a565b90600052602060002090601f0160209004810192826200009d5760008555620000e9565b82601f10620000b857805160ff1916838001178555620000e9565b82800160010185558215620000e9579182015b82811115620000e8578251825591602001919060010190620000cb565b5b509050620000f89190620000fc565b5090565b5b8082111562000117576000816000905550600101620000fd565b5090565b7f4e487b7100000000000000000000000000000000000000000000000000000000600052602260045260246000fd5b600060028204905060018216806200016357607f821691505b602082108114156200017a57620001796200011b565b5b50919050565b6118ec80620001906000396000f3fe6080604052600436106100865760003560e01c80635ee95cae116100595780635ee95cae1461013a5780637acc0b2014610163578063a210f04c146101a6578063e0f6ef87146101cf578063f692f5e7146101fa57610086565b806306fdde031461008b5780631b61040d146100b6578063259132d4146100df57806338e76a031461011e575b600080fd5b34801561009757600080fd5b506100a0610237565b6040516100ad91906111b2565b60405180910390f35b3480156100c257600080fd5b506100dd60048036038101906100d89190611353565b6102c5565b005b3480156100eb57600080fd5b506101066004803603810190610101919061140e565b610482565b6040516101159392919061149e565b60405180910390f35b610138600480360381019061013391906114d5565b6104e9565b005b34801561014657600080fd5b50610161600480360381019061015c91906114d5565b610a2a565b005b34801561016f57600080fd5b5061018a600480360381019061018591906114d5565b610b02565b60405161019d979695949392919061153e565b60405180910390f35b3480156101b257600080fd5b506101cd60048036038101906101c891906115c2565b610d09565b005b3480156101db57600080fd5b506101e4610ec7565b6040516101f19190611691565b60405180910390f35b34801561020657600080fd5b50610221600480360381019061021c91906114d5565b610ecd565b60405161022e91906117bb565b60405180910390f35b600080546102449061180c565b80601f01602080910402602001604051908101604052809291908181526020018280546102709061180c565b80156102bd5780601f10610292576101008083540402835291602001916102bd565b820191906000526020600020905b8154815290600101906020018083116102a057829003601f168201915b505050505081565b60008451116102d357600080fd5b600081116102e057600080fd5b600160008154809291906102f39061186d565b919050555060006040518060e0016040528060015481526020018681526020018581526020018481526020018381526020013373ffffffffffffffffffffffffffffffffffffffff16815260200160001515815250905080600260006001548152602001908152602001600020600082015181600001556020820151816001019080519060200190610386929190610fa9565b5060408201518160020190805190602001906103a3929190610fa9565b5060608201518160030190805190602001906103c0929190610fa9565b506080820151816004015560a08201518160050160006101000a81548173ffffffffffffffffffffffffffffffffffffffff021916908373ffffffffffffffffffffffffffffffffffffffff16021790555060c08201518160050160146101000a81548160ff0219169083151502179055509050507ff6556a2042c0645cd94a9a74cb0f2deb50d7d8e8db9be80c91df77f5ec6039a660015486868686336000604051610473979695949392919061153e565b60405180910390a15050505050565b6003602052816000526040600020818154811061049e57600080fd5b9060005260206000209060030201600091509150508060000160009054906101000a900473ffffffffffffffffffffffffffffffffffffffff16908060010154908060020154905083565b6000600260008381526020019081526020016000206040518060e0016040529081600082015481526020016001820180546105239061180c565b80601f016020809104026020016040519081016040528092919081815260200182805461054f9061180c565b801561059c5780601f106105715761010080835404028352916020019161059c565b820191906000526020600020905b81548152906001019060200180831161057f57829003601f168201915b505050505081526020016002820180546105b59061180c565b80601f01602080910402602001604051908101604052809291908181526020018280546105e19061180c565b801561062e5780601f106106035761010080835404028352916020019161062e565b820191906000526020600020905b81548152906001019060200180831161061157829003601f168201915b505050505081526020016003820180546106479061180c565b80601f01602080910402602001604051908101604052809291908181526020018280546106739061180c565b80156106c05780601f10610695576101008083540402835291602001916106c0565b820191906000526020600020905b8154815290600101906020018083116106a357829003601f168201915b50505050508152602001600482015481526020016005820160009054906101000a900473ffffffffffffffffffffffffffffffffffffffff1673ffffffffffffffffffffffffffffffffffffffff1673ffffffffffffffffffffffffffffffffffffffff1681526020016005820160149054906101000a900460ff161515151581525050905060008160a001519050600082600001511180156107695750600154826000015111155b61077257600080fd5b816080015134101561078357600080fd5b8160c001511561079257600080fd5b3373ffffffffffffffffffffffffffffffffffffffff168173ffffffffffffffffffffffffffffffffffffffff1614156107cb57600080fd5b338260a0019073ffffffffffffffffffffffffffffffffffffffff16908173ffffffffffffffffffffffffffffffffffffffff168152505060018260c0019015159081151581525050816002600085815260200190815260200160002060008201518160000155602082015181600101908051906020019061084e929190610fa9565b50604082015181600201908051906020019061086b929190610fa9565b506060820151816003019080519060200190610888929190610fa9565b506080820151816004015560a08201518160050160006101000a81548173ffffffffffffffffffffffffffffffffffffffff021916908373ffffffffffffffffffffffffffffffffffffffff16021790555060c08201518160050160146101000a81548160ff021916908315150217905550905050600060405180606001604052803373ffffffffffffffffffffffffffffffffffffffff168152602001846080015181526020014281525090506003600085815260200190815260200160002081908060018154018082558091505060019003906000526020600020906003020160009091909190915060008201518160000160006101000a81548173ffffffffffffffffffffffffffffffffffffffff021916908373ffffffffffffffffffffffffffffffffffffffff160217905550602082015181600101556040820151816002015550507fe7172e22e6891fe7d6f12679abf0ec3b2ccb1e7da9f6de825c375537a7bb700e848460200151856040015186606001518760800151336001604051610a1c979695949392919061153e565b60405180910390a150505050565b600060026000838152602001908152602001600020905081816000015414610a5157600080fd5b8060050160149054906101000a900460ff1615610a6d57600080fd5b60026000838152602001908152602001600020600080820160009055600182016000610a99919061102f565b600282016000610aa9919061102f565b600382016000610ab9919061102f565b60048201600090556005820160006101000a81549073ffffffffffffffffffffffffffffffffffffffff02191690556005820160146101000a81549060ff021916905550505050565b6002602052806000526040600020600091509050806000015490806001018054610b2b9061180c565b80601f0160208091040260200160405190810160405280929190818152602001828054610b579061180c565b8015610ba45780601f10610b7957610100808354040283529160200191610ba4565b820191906000526020600020905b815481529060010190602001808311610b8757829003601f168201915b505050505090806002018054610bb99061180c565b80601f0160208091040260200160405190810160405280929190818152602001828054610be59061180c565b8015610c325780601f10610c0757610100808354040283529160200191610c32565b820191906000526020600020905b815481529060010190602001808311610c1557829003601f168201915b505050505090806003018054610c479061180c565b80601f0160208091040260200160405190810160405280929190818152602001828054610c739061180c565b8015610cc05780601f10610c9557610100808354040283529160200191610cc0565b820191906000526020600020905b815481529060010190602001808311610ca357829003601f168201915b5050505050908060040154908060050160009054906101000a900473ffffffffffffffffffffffffffffffffffffffff16908060050160149054906101000a900460ff16905087565b600060026000878152602001908152602001600020905085816000015414610d3057600080fd5b8060050160149054906101000a900460ff1615610d4c57600080fd5b84816001019080519060200190610d64929190610fa9565b5083816002019080519060200190610d7d929190610fa9565b5082816003019080519060200190610d96929190610fa9565b508181600401819055508060026000888152602001908152602001600020600082015481600001556001820181600101908054610dd29061180c565b610ddd92919061106f565b506002820181600201908054610df29061180c565b610dfd92919061106f565b506003820181600301908054610e129061180c565b610e1d92919061106f565b50600482015481600401556005820160009054906101000a900473ffffffffffffffffffffffffffffffffffffffff168160050160006101000a81548173ffffffffffffffffffffffffffffffffffffffff021916908373ffffffffffffffffffffffffffffffffffffffff1602179055506005820160149054906101000a900460ff168160050160146101000a81548160ff021916908315150217905550905050505050505050565b60015481565b606060036000838152602001908152602001600020805480602002602001604051908101604052809291908181526020016000905b82821015610f9e57838290600052602060002090600302016040518060600160405290816000820160009054906101000a900473ffffffffffffffffffffffffffffffffffffffff1673ffffffffffffffffffffffffffffffffffffffff1673ffffffffffffffffffffffffffffffffffffffff1681526020016001820154815260200160028201548152505081526020019060010190610f02565b505050509050919050565b828054610fb59061180c565b90600052602060002090601f016020900481019282610fd7576000855561101e565b82601f10610ff057805160ff191683800117855561101e565b8280016001018555821561101e579182015b8281111561101d578251825591602001919060010190611002565b5b50905061102b91906110fc565b5090565b50805461103b9061180c565b6000825580601f1061104d575061106c565b601f01602090049060005260206000209081019061106b91906110fc565b5b50565b82805461107b9061180c565b90600052602060002090601f01602090048101928261109d57600085556110eb565b82601f106110ae57805485556110eb565b828001600101855582156110eb57600052602060002091601f016020900482015b828111156110ea5782548255916001019190600101906110cf565b5b5090506110f891906110fc565b5090565b5b808211156111155760008160009055506001016110fd565b5090565b600081519050919050565b600082825260208201905092915050565b60005b83811015611153578082015181840152602081019050611138565b83811115611162576000848401525b50505050565b6000601f19601f8301169050919050565b600061118482611119565b61118e8185611124565b935061119e818560208601611135565b6111a781611168565b840191505092915050565b600060208201905081810360008301526111cc8184611179565b905092915050565b6000604051905090565b600080fd5b600080fd5b600080fd5b600080fd5b7f4e487b7100000000000000000000000000000000000000000000000000000000600052604160045260246000fd5b61122a82611168565b810181811067ffffffffffffffff82111715611249576112486111f2565b5b80604052505050565b600061125c6111d4565b90506112688282611221565b919050565b600067ffffffffffffffff821115611288576112876111f2565b5b61129182611168565b9050602081019050919050565b82818337600083830152505050565b60006112c06112bb8461126d565b611252565b9050828152602081018484840111156112dc576112db6111ed565b5b6112e784828561129e565b509392505050565b600082601f830112611304576113036111e8565b5b81356113148482602086016112ad565b91505092915050565b6000819050919050565b6113308161131d565b811461133b57600080fd5b50565b60008135905061134d81611327565b92915050565b6000806000806080858703121561136d5761136c6111de565b5b600085013567ffffffffffffffff81111561138b5761138a6111e3565b5b611397878288016112ef565b945050602085013567ffffffffffffffff8111156113b8576113b76111e3565b5b6113c4878288016112ef565b935050604085013567ffffffffffffffff8111156113e5576113e46111e3565b5b6113f1878288016112ef565b92505060606114028782880161133e565b91505092959194509250565b60008060408385031215611425576114246111de565b5b60006114338582860161133e565b92505060206114448582860161133e565b9150509250929050565b600073ffffffffffffffffffffffffffffffffffffffff82169050919050565b60006114798261144e565b9050919050565b6114898161146e565b82525050565b6114988161131d565b82525050565b60006060820190506114b36000830186611480565b6114c0602083018561148f565b6114cd604083018461148f565b949350505050565b6000602082840312156114eb576114ea6111de565b5b60006114f98482850161133e565b91505092915050565b600061150d8261144e565b9050919050565b61151d81611502565b82525050565b60008115159050919050565b61153881611523565b82525050565b600060e082019050611553600083018a61148f565b81810360208301526115658189611179565b905081810360408301526115798188611179565b9050818103606083015261158d8187611179565b905061159c608083018661148f565b6115a960a0830185611514565b6115b660c083018461152f565b98975050505050505050565b600080600080600060a086880312156115de576115dd6111de565b5b60006115ec8882890161133e565b955050602086013567ffffffffffffffff81111561160d5761160c6111e3565b5b611619888289016112ef565b945050604086013567ffffffffffffffff81111561163a576116396111e3565b5b611646888289016112ef565b935050606086013567ffffffffffffffff811115611667576116666111e3565b5b611673888289016112ef565b92505060806116848882890161133e565b9150509295509295909350565b60006020820190506116a6600083018461148f565b92915050565b600081519050919050565b600082825260208201905092915050565b6000819050602082019050919050565b6116e18161146e565b82525050565b6116f08161131d565b82525050565b60608201600082015161170c60008501826116d8565b50602082015161171f60208501826116e7565b50604082015161173260408501826116e7565b50505050565b600061174483836116f6565b60608301905092915050565b6000602082019050919050565b6000611768826116ac565b61177281856116b7565b935061177d836116c8565b8060005b838110156117ae5781516117958882611738565b97506117a083611750565b925050600181019050611781565b5085935050505092915050565b600060208201905081810360008301526117d5818461175d565b905092915050565b7f4e487b7100000000000000000000000000000000000000000000000000000000600052602260045260246000fd5b6000600282049050600182168061182457607f821691505b60208210811415611838576118376117dd565b5b50919050565b7f4e487b7100000000000000000000000000000000000000000000000000000000600052601160045260246000fd5b60006118788261131d565b91507fffffffffffffffffffffffffffffffffffffffffffffffffffffffffffffffff8214156118ab576118aa61183e565b5b60018201905091905056fea264697066735822122091a4d39cf2881ac55968b8810a626e5b50bb458cd939a4f7410da47231b8686a64736f6c634300080c0033",
  "immutableReferences": {},
  "source": "// SPDX-License-Identifier: MIT\npragma solidity >=0.4.22 <0.9.0;\n\ncontract Marketplace {\n    string public name;\n    uint public productCount = 0;\n\n    mapping(uint => Product) public products;\n    mapping(uint => Transaction[]) public productTransactions;\n\n    struct Product {\n        uint id;\n        string name;\n        string nameimg;\n        string desc;\n        uint price;\n        address payable owner;\n        bool purchased;\n    }\n\n    struct Transaction {\n        address buyer;\n        uint price;\n        uint timestamp;\n    }\n\n    event ProductCreated(\n        uint id,\n        string name,\n        string nameimg,\n        string desc,\n        uint price,\n        address payable owner,\n        bool purchased\n    );\n\n    event ProductPurchased(\n        uint id,\n        string name,\n        string nameimg,\n        string desc,\n        uint price,\n        address payable owner,\n        bool purchased\n    );\n\n    constructor() {\n        name = \"Marketplace\";\n    }\n\n    function createProduct(\n        string memory _name,\n        string memory _nameimg,\n        string memory _desc,\n        uint _price\n    ) public {\n        require(bytes(_name).length > 0);\n        require(_price > 0);\n        productCount++;\n\n        Product memory newProduct = Product(\n            productCount,\n            _name,\n            _nameimg,\n            _desc,\n            _price,\n            payable(msg.sender),\n            false\n        );\n        products[productCount] = newProduct;\n        emit ProductCreated(\n            productCount,\n            _name,\n            _nameimg,\n            _desc,\n            _price,\n            payable(msg.sender),\n            false\n        );\n    }\n\n    function purchaseProduct(uint _id) public payable {\n        Product memory _product = products[_id];\n        address payable _seller = _product.owner;\n\n        require(_product.id > 0 && _product.id <= productCount);\n        require(msg.value >= _product.price);\n        require(!_product.purchased);\n        require(_seller != msg.sender);\n\n        _product.owner = payable(msg.sender);\n        _product.purchased = true;\n        products[_id] = _product;\n\n        Transaction memory newTransaction = Transaction(\n            msg.sender,\n            _product.price,\n            block.timestamp\n        );\n        productTransactions[_id].push(newTransaction);\n\n        emit ProductPurchased(\n            _id,\n            _product.name,\n            _product.nameimg,\n            _product.desc,\n            _product.price,\n            payable(msg.sender),\n            true\n        );\n    }\n\n    function editProduct(\n        uint _id,\n        string memory _newName,\n        string memory _newNameimg,\n        string memory _newDesc,\n        uint _newPrice\n    ) public {\n        Product storage _product = products[_id];\n        require(_product.id == _id);\n        require(!_product.purchased);\n\n        _product.name = _newName;\n        _product.nameimg = _newNameimg;\n        _product.desc = _newDesc;\n        _product.price = _newPrice;\n\n        products[_id] = _product;\n    }\n\n    function removeProduct(uint _id) public {\n        Product storage _product = products[_id];\n        require(_product.id == _id);\n        require(!_product.purchased);\n\n        delete products[_id];\n    }\n\n    function getTransactionHistory(uint _id)\n        public\n        view\n        returns (Transaction[] memory)\n    {\n        return productTransactions[_id];\n    }\n}",
  "sourcePath": "E:\\zgithubWorks\\Marketplacev1\\work\\src\\contracts\\Marketplace.sol",
  "compiler": {
    "name": "solc",
    "version": "0.8.12+commit.f00d7308.Emscripten.clang"
  },
  "schemaVersion": "3.4.4",
  "updatedAt": "2023-05-13T12:07:21.755Z",
  "networkType": "ethereum",
  "devdoc": {
    "kind": "dev",
    "methods": {},
    "version": 1
  },
  "userdoc": {
    "kind": "user",
    "methods": {},
    "version": 1
  }
}