{
  "contractName": "Marketplace",
  "abi": [
    {
      "inputs": [],
      "stateMutability": "nonpayable",
      "type": "constructor"
    },
    {
      "anonymous": false,
      "inputs": [
        {
          "indexed": false,
          "internalType": "uint256",
          "name": "id",
          "type": "uint256"
        },
        {
          "indexed": false,
          "internalType": "string",
          "name": "name",
          "type": "string"
        },
        {
          "indexed": false,
          "internalType": "string",
          "name": "nameimg",
          "type": "string"
        },
        {
          "indexed": false,
          "internalType": "string",
          "name": "desc",
          "type": "string"
        },
        {
          "indexed": false,
          "internalType": "uint256",
          "name": "price",
          "type": "uint256"
        },
        {
          "indexed": false,
          "internalType": "address payable",
          "name": "owner",
          "type": "address"
        },
        {
          "indexed": false,
          "internalType": "bool",
          "name": "purchased",
          "type": "bool"
        }
      ],
      "name": "ProductCreated",
      "type": "event"
    },
    {
      "anonymous": false,
      "inputs": [
        {
          "indexed": false,
          "internalType": "uint256",
          "name": "id",
          "type": "uint256"
        },
        {
          "indexed": false,
          "internalType": "string",
          "name": "name",
          "type": "string"
        },
        {
          "indexed": false,
          "internalType": "string",
          "name": "nameimg",
          "type": "string"
        },
        {
          "indexed": false,
          "internalType": "string",
          "name": "desc",
          "type": "string"
        },
        {
          "indexed": false,
          "internalType": "uint256",
          "name": "price",
          "type": "uint256"
        },
        {
          "indexed": false,
          "internalType": "address payable",
          "name": "owner",
          "type": "address"
        },
        {
          "indexed": false,
          "internalType": "bool",
          "name": "purchased",
          "type": "bool"
        }
      ],
      "name": "ProductPurchased",
      "type": "event"
    },
    {
      "inputs": [],
      "name": "name",
      "outputs": [
        {
          "internalType": "string",
          "name": "",
          "type": "string"
        }
      ],
      "stateMutability": "view",
      "type": "function"
    },
    {
      "inputs": [],
      "name": "productCount",
      "outputs": [
        {
          "internalType": "uint256",
          "name": "",
          "type": "uint256"
        }
      ],
      "stateMutability": "view",
      "type": "function"
    },
    {
      "inputs": [
        {
          "internalType": "uint256",
          "name": "",
          "type": "uint256"
        }
      ],
      "name": "products",
      "outputs": [
        {
          "internalType": "uint256",
          "name": "id",
          "type": "uint256"
        },
        {
          "internalType": "string",
          "name": "name",
          "type": "string"
        },
        {
          "internalType": "string",
          "name": "nameimg",
          "type": "string"
        },
        {
          "internalType": "string",
          "name": "desc",
          "type": "string"
        },
        {
          "internalType": "uint256",
          "name": "price",
          "type": "uint256"
        },
        {
          "internalType": "address payable",
          "name": "owner",
          "type": "address"
        },
        {
          "internalType": "bool",
          "name": "purchased",
          "type": "bool"
        }
      ],
      "stateMutability": "view",
      "type": "function"
    },
    {
      "inputs": [
        {
          "internalType": "string",
          "name": "_name",
          "type": "string"
        },
        {
          "internalType": "string",
          "name": "_nameimg",
          "type": "string"
        },
        {
          "internalType": "string",
          "name": "_desc",
          "type": "string"
        },
        {
          "internalType": "uint256",
          "name": "_price",
          "type": "uint256"
        }
      ],
      "name": "createProduct",
      "outputs": [],
      "stateMutability": "nonpayable",
      "type": "function"
    },
    {
      "inputs": [
        {
          "internalType": "uint256",
          "name": "_id",
          "type": "uint256"
        }
      ],
      "name": "purchaseProduct",
      "outputs": [],
      "stateMutability": "payable",
      "type": "function"
    }
  ],
  "bytecode": "0x608060405260006001553480156200001657600080fd5b506040518060400160405280600c81526020017f204d61726b6574706c616365000000000000000000000000000000000000000081525060009080519060200190620000649291906200006b565b5062000180565b82805462000079906200014a565b90600052602060002090601f0160209004810192826200009d5760008555620000e9565b82601f10620000b857805160ff1916838001178555620000e9565b82800160010185558215620000e9579182015b82811115620000e8578251825591602001919060010190620000cb565b5b509050620000f89190620000fc565b5090565b5b8082111562000117576000816000905550600101620000fd565b5090565b7f4e487b7100000000000000000000000000000000000000000000000000000000600052602260045260246000fd5b600060028204905060018216806200016357607f821691505b602082108114156200017a57620001796200011b565b5b50919050565b61101380620001906000396000f3fe60806040526004361061004a5760003560e01c806306fdde031461004f5780631b61040d1461007a57806338e76a03146100a35780637acc0b20146100bf578063e0f6ef8714610102575b600080fd5b34801561005b57600080fd5b5061006461012d565b6040516100719190610b71565b60405180910390f35b34801561008657600080fd5b506100a1600480360381019061009c9190610d12565b6101bb565b005b6100bd60048036038101906100b89190610dcd565b610372565b005b3480156100cb57600080fd5b506100e660048036038101906100e19190610dcd565b610828565b6040516100f99796959493929190610e65565b60405180910390f35b34801561010e57600080fd5b50610117610a2f565b6040516101249190610ee9565b60405180910390f35b6000805461013a90610f33565b80601f016020809104026020016040519081016040528092919081815260200182805461016690610f33565b80156101b35780601f10610188576101008083540402835291602001916101b3565b820191906000526020600020905b81548152906001019060200180831161019657829003601f168201915b505050505081565b60008451116101c957600080fd5b600081116101d657600080fd5b600160008154809291906101e990610f94565b91905055506040518060e0016040528060015481526020018581526020018481526020018381526020018281526020013373ffffffffffffffffffffffffffffffffffffffff16815260200160001515815250600260006001548152602001908152602001600020600082015181600001556020820151816001019080519060200190610277929190610a35565b506040820151816002019080519060200190610294929190610a35565b5060608201518160030190805190602001906102b1929190610a35565b506080820151816004015560a08201518160050160006101000a81548173ffffffffffffffffffffffffffffffffffffffff021916908373ffffffffffffffffffffffffffffffffffffffff16021790555060c08201518160050160146101000a81548160ff0219169083151502179055509050507ff6556a2042c0645cd94a9a74cb0f2deb50d7d8e8db9be80c91df77f5ec6039a6600154858585853360006040516103649796959493929190610e65565b60405180910390a150505050565b6000600260008381526020019081526020016000206040518060e0016040529081600082015481526020016001820180546103ac90610f33565b80601f01602080910402602001604051908101604052809291908181526020018280546103d890610f33565b80156104255780601f106103fa57610100808354040283529160200191610425565b820191906000526020600020905b81548152906001019060200180831161040857829003601f168201915b5050505050815260200160028201805461043e90610f33565b80601f016020809104026020016040519081016040528092919081815260200182805461046a90610f33565b80156104b75780601f1061048c576101008083540402835291602001916104b7565b820191906000526020600020905b81548152906001019060200180831161049a57829003601f168201915b505050505081526020016003820180546104d090610f33565b80601f01602080910402602001604051908101604052809291908181526020018280546104fc90610f33565b80156105495780601f1061051e57610100808354040283529160200191610549565b820191906000526020600020905b81548152906001019060200180831161052c57829003601f168201915b50505050508152602001600482015481526020016005820160009054906101000a900473ffffffffffffffffffffffffffffffffffffffff1673ffffffffffffffffffffffffffffffffffffffff1673ffffffffffffffffffffffffffffffffffffffff1681526020016005820160149054906101000a900460ff161515151581525050905060008160a001519050600082600001511180156105f25750600154826000015111155b6105fb57600080fd5b816080015134101561060c57600080fd5b8160c001511561061b57600080fd5b3373ffffffffffffffffffffffffffffffffffffffff168173ffffffffffffffffffffffffffffffffffffffff16141561065457600080fd5b338260a0019073ffffffffffffffffffffffffffffffffffffffff16908173ffffffffffffffffffffffffffffffffffffffff168152505060018260c001901515908115158152505081600260008581526020019081526020016000206000820151816000015560208201518160010190805190602001906106d7929190610a35565b5060408201518160020190805190602001906106f4929190610a35565b506060820151816003019080519060200190610711929190610a35565b506080820151816004015560a08201518160050160006101000a81548173ffffffffffffffffffffffffffffffffffffffff021916908373ffffffffffffffffffffffffffffffffffffffff16021790555060c08201518160050160146101000a81548160ff0219169083151502179055509050508073ffffffffffffffffffffffffffffffffffffffff166108fc349081150290604051600060405180830381858888f193505050501580156107cc573d6000803e3d6000fd5b507fe7172e22e6891fe7d6f12679abf0ec3b2ccb1e7da9f6de825c375537a7bb700e600154836020015184604001518560600151866080015133600160405161081b9796959493929190610e65565b60405180910390a1505050565b600260205280600052604060002060009150905080600001549080600101805461085190610f33565b80601f016020809104026020016040519081016040528092919081815260200182805461087d90610f33565b80156108ca5780601f1061089f576101008083540402835291602001916108ca565b820191906000526020600020905b8154815290600101906020018083116108ad57829003601f168201915b5050505050908060020180546108df90610f33565b80601f016020809104026020016040519081016040528092919081815260200182805461090b90610f33565b80156109585780601f1061092d57610100808354040283529160200191610958565b820191906000526020600020905b81548152906001019060200180831161093b57829003601f168201915b50505050509080600301805461096d90610f33565b80601f016020809104026020016040519081016040528092919081815260200182805461099990610f33565b80156109e65780601f106109bb576101008083540402835291602001916109e6565b820191906000526020600020905b8154815290600101906020018083116109c957829003601f168201915b5050505050908060040154908060050160009054906101000a900473ffffffffffffffffffffffffffffffffffffffff16908060050160149054906101000a900460ff16905087565b60015481565b828054610a4190610f33565b90600052602060002090601f016020900481019282610a635760008555610aaa565b82601f10610a7c57805160ff1916838001178555610aaa565b82800160010185558215610aaa579182015b82811115610aa9578251825591602001919060010190610a8e565b5b509050610ab79190610abb565b5090565b5b80821115610ad4576000816000905550600101610abc565b5090565b600081519050919050565b600082825260208201905092915050565b60005b83811015610b12578082015181840152602081019050610af7565b83811115610b21576000848401525b50505050565b6000601f19601f8301169050919050565b6000610b4382610ad8565b610b4d8185610ae3565b9350610b5d818560208601610af4565b610b6681610b27565b840191505092915050565b60006020820190508181036000830152610b8b8184610b38565b905092915050565b6000604051905090565b600080fd5b600080fd5b600080fd5b600080fd5b7f4e487b7100000000000000000000000000000000000000000000000000000000600052604160045260246000fd5b610be982610b27565b810181811067ffffffffffffffff82111715610c0857610c07610bb1565b5b80604052505050565b6000610c1b610b93565b9050610c278282610be0565b919050565b600067ffffffffffffffff821115610c4757610c46610bb1565b5b610c5082610b27565b9050602081019050919050565b82818337600083830152505050565b6000610c7f610c7a84610c2c565b610c11565b905082815260208101848484011115610c9b57610c9a610bac565b5b610ca6848285610c5d565b509392505050565b600082601f830112610cc357610cc2610ba7565b5b8135610cd3848260208601610c6c565b91505092915050565b6000819050919050565b610cef81610cdc565b8114610cfa57600080fd5b50565b600081359050610d0c81610ce6565b92915050565b60008060008060808587031215610d2c57610d2b610b9d565b5b600085013567ffffffffffffffff811115610d4a57610d49610ba2565b5b610d5687828801610cae565b945050602085013567ffffffffffffffff811115610d7757610d76610ba2565b5b610d8387828801610cae565b935050604085013567ffffffffffffffff811115610da457610da3610ba2565b5b610db087828801610cae565b9250506060610dc187828801610cfd565b91505092959194509250565b600060208284031215610de357610de2610b9d565b5b6000610df184828501610cfd565b91505092915050565b610e0381610cdc565b82525050565b600073ffffffffffffffffffffffffffffffffffffffff82169050919050565b6000610e3482610e09565b9050919050565b610e4481610e29565b82525050565b60008115159050919050565b610e5f81610e4a565b82525050565b600060e082019050610e7a600083018a610dfa565b8181036020830152610e8c8189610b38565b90508181036040830152610ea08188610b38565b90508181036060830152610eb48187610b38565b9050610ec36080830186610dfa565b610ed060a0830185610e3b565b610edd60c0830184610e56565b98975050505050505050565b6000602082019050610efe6000830184610dfa565b92915050565b7f4e487b7100000000000000000000000000000000000000000000000000000000600052602260045260246000fd5b60006002820490506001821680610f4b57607f821691505b60208210811415610f5f57610f5e610f04565b5b50919050565b7f4e487b7100000000000000000000000000000000000000000000000000000000600052601160045260246000fd5b6000610f9f82610cdc565b91507fffffffffffffffffffffffffffffffffffffffffffffffffffffffffffffffff821415610fd257610fd1610f65565b5b60018201905091905056fea264697066735822122035f271a0f35262aebd85224ec37711839d0b1662924d25366acb09d18372fecc64736f6c634300080c0033",
  "immutableReferences": {},
  "source": "//SPDX-License-Identifier: MIT\npragma solidity >=0.4.22 <0.9.0;\n\ncontract Marketplace {\n    string public name;\n    uint public productCount = 0;\n    mapping(uint => Product) public products;\n\n    struct Product {\n        uint id;\n        string name;\n        string nameimg;\n        string desc;\n        uint price;\n        address payable owner;\n        bool purchased;\n    }\n\n    event ProductCreated(\n        uint id,\n        string name,\n        string nameimg,\n        string desc,\n        uint price,\n        address payable owner,\n        bool purchased\n    );\n\n    event ProductPurchased(\n        uint id,\n        string name,\n        string nameimg,\n        string desc,\n        uint price,\n        address payable owner,\n        bool purchased\n    );\n\n    constructor() {\n        name = \" Marketplace\";\n    }\n\n    function createProduct(string memory _name,string memory _nameimg,string memory _desc, uint _price) public {\n        // Require a valid name\n        require(bytes(_name).length > 0);\n        // Require a valid price\n        require(_price > 0);\n        // Increment product count\n        productCount ++;\n        // Create the product\n        products[productCount] = Product(productCount, _name,_nameimg,_desc, _price, payable(msg.sender), false);\n        // Trigger an event\n        emit ProductCreated(productCount, _name,_nameimg,_desc, _price, payable(msg.sender), false);\n    }\n\n    function purchaseProduct(uint _id) public payable {\n        // Fetch the product\n        Product memory _product = products[_id];\n        // Fetch the owner\n        address payable _seller = _product.owner;\n        // Make sure the product has a valid id\n        require(_product.id > 0 && _product.id <= productCount);\n        // Require that there is enough Ether in the transaction\n        require(msg.value >= _product.price);\n        // Require that the product has not been purchased already\n        require(!_product.purchased);\n        // Require that the buyer is not the seller\n        require(_seller != msg.sender);\n        // Transfer ownership to the buyer\n        _product.owner = payable(msg.sender);\n        // Mark as purchased\n        _product.purchased = true;\n        // Update the product\n        products[_id] = _product;\n        // Pay the seller by sending them Ether\n        payable(address(_seller)).transfer(msg.value);\n        // Trigger an event\n        emit ProductPurchased(productCount, _product.name,_product.nameimg,_product.desc, _product.price, payable(msg.sender), true);\n    }\n}\n",
  "sourcePath": "C:\\Users\\12mohmd7\\Downloads\\Completed (2)\\Completed\\src\\contracts\\Marketplace.sol",
  "compiler": {
    "name": "solc",
    "version": "0.8.12+commit.f00d7308.Emscripten.clang"
  },
  "schemaVersion": "3.4.4",
  "updatedAt": "2023-05-13T08:28:21.554Z",
  "devdoc": {
    "kind": "dev",
    "methods": {},
    "version": 1
  },
  "userdoc": {
    "kind": "user",
    "methods": {},
    "version": 1
  }
}