{
  "contractName": "Marketplace",
  "abi": [
    {
      "inputs": [],
      "stateMutability": "nonpayable",
      "type": "constructor"
    },
    {
      "anonymous": false,
      "inputs": [
        {
          "indexed": false,
          "internalType": "uint256",
          "name": "id",
          "type": "uint256"
        },
        {
          "indexed": false,
          "internalType": "string",
          "name": "name",
          "type": "string"
        },
        {
          "indexed": false,
          "internalType": "string",
          "name": "nameimg",
          "type": "string"
        },
        {
          "indexed": false,
          "internalType": "string",
          "name": "desc",
          "type": "string"
        },
        {
          "indexed": false,
          "internalType": "uint256",
          "name": "price",
          "type": "uint256"
        },
        {
          "indexed": false,
          "internalType": "address payable",
          "name": "owner",
          "type": "address"
        },
        {
          "indexed": false,
          "internalType": "bool",
          "name": "purchased",
          "type": "bool"
        }
      ],
      "name": "ProductCreated",
      "type": "event"
    },
    {
      "anonymous": false,
      "inputs": [
        {
          "indexed": false,
          "internalType": "uint256",
          "name": "id",
          "type": "uint256"
        },
        {
          "indexed": false,
          "internalType": "string",
          "name": "name",
          "type": "string"
        },
        {
          "indexed": false,
          "internalType": "string",
          "name": "nameimg",
          "type": "string"
        },
        {
          "indexed": false,
          "internalType": "string",
          "name": "desc",
          "type": "string"
        },
        {
          "indexed": false,
          "internalType": "uint256",
          "name": "price",
          "type": "uint256"
        },
        {
          "indexed": false,
          "internalType": "address payable",
          "name": "owner",
          "type": "address"
        },
        {
          "indexed": false,
          "internalType": "bool",
          "name": "purchased",
          "type": "bool"
        }
      ],
      "name": "ProductPurchased",
      "type": "event"
    },
    {
      "inputs": [],
      "name": "name",
      "outputs": [
        {
          "internalType": "string",
          "name": "",
          "type": "string"
        }
      ],
      "stateMutability": "view",
      "type": "function"
    },
    {
      "inputs": [],
      "name": "productCount",
      "outputs": [
        {
          "internalType": "uint256",
          "name": "",
          "type": "uint256"
        }
      ],
      "stateMutability": "view",
      "type": "function"
    },
    {
      "inputs": [
        {
          "internalType": "uint256",
          "name": "",
          "type": "uint256"
        }
      ],
      "name": "products",
      "outputs": [
        {
          "internalType": "uint256",
          "name": "id",
          "type": "uint256"
        },
        {
          "internalType": "string",
          "name": "name",
          "type": "string"
        },
        {
          "internalType": "string",
          "name": "nameimg",
          "type": "string"
        },
        {
          "internalType": "string",
          "name": "desc",
          "type": "string"
        },
        {
          "internalType": "uint256",
          "name": "price",
          "type": "uint256"
        },
        {
          "internalType": "address payable",
          "name": "owner",
          "type": "address"
        },
        {
          "internalType": "bool",
          "name": "purchased",
          "type": "bool"
        }
      ],
      "stateMutability": "view",
      "type": "function"
    },
    {
      "inputs": [
        {
          "internalType": "string",
          "name": "_name",
          "type": "string"
        },
        {
          "internalType": "string",
          "name": "_nameimg",
          "type": "string"
        },
        {
          "internalType": "string",
          "name": "_desc",
          "type": "string"
        },
        {
          "internalType": "uint256",
          "name": "_price",
          "type": "uint256"
        }
      ],
      "name": "createProduct",
      "outputs": [],
      "stateMutability": "nonpayable",
      "type": "function"
    },
    {
      "inputs": [
        {
          "internalType": "uint256",
          "name": "_id",
          "type": "uint256"
        }
      ],
      "name": "purchaseProduct",
      "outputs": [],
      "stateMutability": "payable",
      "type": "function"
    }
  ],
  "bytecode": "0x608060405260006001553480156200001657600080fd5b506040518060400160405280600c81526020017f204d61726b6574706c616365000000000000000000000000000000000000000081525060009080519060200190620000649291906200006b565b5062000180565b82805462000079906200011b565b90600052602060002090601f0160209004810192826200009d5760008555620000e9565b82601f10620000b857805160ff1916838001178555620000e9565b82800160010185558215620000e9579182015b82811115620000e8578251825591602001919060010190620000cb565b5b509050620000f89190620000fc565b5090565b5b8082111562000117576000816000905550600101620000fd565b5090565b600060028204905060018216806200013457607f821691505b602082108114156200014b576200014a62000151565b5b50919050565b7f4e487b7100000000000000000000000000000000000000000000000000000000600052602260045260246000fd5b61101380620001906000396000f3fe60806040526004361061004a5760003560e01c806306fdde031461004f5780631b61040d1461007a57806338e76a03146100a35780637acc0b20146100bf578063e0f6ef8714610102575b600080fd5b34801561005b57600080fd5b5061006461012d565b6040516100719190610cab565b60405180910390f35b34801561008657600080fd5b506100a1600480360381019061009c9190610b5d565b6101bb565b005b6100bd60048036038101906100b89190610c18565b610372565b005b3480156100cb57600080fd5b506100e660048036038101906100e19190610c18565b610828565b6040516100f99796959493929190610ce8565b60405180910390f35b34801561010e57600080fd5b50610117610a2f565b6040516101249190610ccd565b60405180910390f35b6000805461013a90610e68565b80601f016020809104026020016040519081016040528092919081815260200182805461016690610e68565b80156101b35780601f10610188576101008083540402835291602001916101b3565b820191906000526020600020905b81548152906001019060200180831161019657829003601f168201915b505050505081565b60008451116101c957600080fd5b600081116101d657600080fd5b600160008154809291906101e990610ecb565b91905055506040518060e0016040528060015481526020018581526020018481526020018381526020018281526020013373ffffffffffffffffffffffffffffffffffffffff16815260200160001515815250600260006001548152602001908152602001600020600082015181600001556020820151816001019080519060200190610277929190610a35565b506040820151816002019080519060200190610294929190610a35565b5060608201518160030190805190602001906102b1929190610a35565b506080820151816004015560a08201518160050160006101000a81548173ffffffffffffffffffffffffffffffffffffffff021916908373ffffffffffffffffffffffffffffffffffffffff16021790555060c08201518160050160146101000a81548160ff0219169083151502179055509050507ff6556a2042c0645cd94a9a74cb0f2deb50d7d8e8db9be80c91df77f5ec6039a6600154858585853360006040516103649796959493929190610ce8565b60405180910390a150505050565b6000600260008381526020019081526020016000206040518060e0016040529081600082015481526020016001820180546103ac90610e68565b80601f01602080910402602001604051908101604052809291908181526020018280546103d890610e68565b80156104255780601f106103fa57610100808354040283529160200191610425565b820191906000526020600020905b81548152906001019060200180831161040857829003601f168201915b5050505050815260200160028201805461043e90610e68565b80601f016020809104026020016040519081016040528092919081815260200182805461046a90610e68565b80156104b75780601f1061048c576101008083540402835291602001916104b7565b820191906000526020600020905b81548152906001019060200180831161049a57829003601f168201915b505050505081526020016003820180546104d090610e68565b80601f01602080910402602001604051908101604052809291908181526020018280546104fc90610e68565b80156105495780601f1061051e57610100808354040283529160200191610549565b820191906000526020600020905b81548152906001019060200180831161052c57829003601f168201915b50505050508152602001600482015481526020016005820160009054906101000a900473ffffffffffffffffffffffffffffffffffffffff1673ffffffffffffffffffffffffffffffffffffffff1673ffffffffffffffffffffffffffffffffffffffff1681526020016005820160149054906101000a900460ff161515151581525050905060008160a001519050600082600001511180156105f25750600154826000015111155b6105fb57600080fd5b816080015134101561060c57600080fd5b8160c001511561061b57600080fd5b3373ffffffffffffffffffffffffffffffffffffffff168173ffffffffffffffffffffffffffffffffffffffff16141561065457600080fd5b338260a0019073ffffffffffffffffffffffffffffffffffffffff16908173ffffffffffffffffffffffffffffffffffffffff168152505060018260c001901515908115158152505081600260008581526020019081526020016000206000820151816000015560208201518160010190805190602001906106d7929190610a35565b5060408201518160020190805190602001906106f4929190610a35565b506060820151816003019080519060200190610711929190610a35565b506080820151816004015560a08201518160050160006101000a81548173ffffffffffffffffffffffffffffffffffffffff021916908373ffffffffffffffffffffffffffffffffffffffff16021790555060c08201518160050160146101000a81548160ff0219169083151502179055509050508073ffffffffffffffffffffffffffffffffffffffff166108fc349081150290604051600060405180830381858888f193505050501580156107cc573d6000803e3d6000fd5b507fe7172e22e6891fe7d6f12679abf0ec3b2ccb1e7da9f6de825c375537a7bb700e600154836020015184604001518560600151866080015133600160405161081b9796959493929190610ce8565b60405180910390a1505050565b600260205280600052604060002060009150905080600001549080600101805461085190610e68565b80601f016020809104026020016040519081016040528092919081815260200182805461087d90610e68565b80156108ca5780601f1061089f576101008083540402835291602001916108ca565b820191906000526020600020905b8154815290600101906020018083116108ad57829003601f168201915b5050505050908060020180546108df90610e68565b80601f016020809104026020016040519081016040528092919081815260200182805461090b90610e68565b80156109585780601f1061092d57610100808354040283529160200191610958565b820191906000526020600020905b81548152906001019060200180831161093b57829003601f168201915b50505050509080600301805461096d90610e68565b80601f016020809104026020016040519081016040528092919081815260200182805461099990610e68565b80156109e65780601f106109bb576101008083540402835291602001916109e6565b820191906000526020600020905b8154815290600101906020018083116109c957829003601f168201915b5050505050908060040154908060050160009054906101000a900473ffffffffffffffffffffffffffffffffffffffff16908060050160149054906101000a900460ff16905087565b60015481565b828054610a4190610e68565b90600052602060002090601f016020900481019282610a635760008555610aaa565b82601f10610a7c57805160ff1916838001178555610aaa565b82800160010185558215610aaa579182015b82811115610aa9578251825591602001919060010190610a8e565b5b509050610ab79190610abb565b5090565b5b80821115610ad4576000816000905550600101610abc565b5090565b6000610aeb610ae684610d91565b610d6c565b905082815260208101848484011115610b0757610b06610fa6565b5b610b12848285610e26565b509392505050565b600082601f830112610b2f57610b2e610fa1565b5b8135610b3f848260208601610ad8565b91505092915050565b600081359050610b5781610fc6565b92915050565b60008060008060808587031215610b7757610b76610fb0565b5b600085013567ffffffffffffffff811115610b9557610b94610fab565b5b610ba187828801610b1a565b945050602085013567ffffffffffffffff811115610bc257610bc1610fab565b5b610bce87828801610b1a565b935050604085013567ffffffffffffffff811115610bef57610bee610fab565b5b610bfb87828801610b1a565b9250506060610c0c87828801610b48565b91505092959194509250565b600060208284031215610c2e57610c2d610fb0565b5b6000610c3c84828501610b48565b91505092915050565b610c4e81610dde565b82525050565b610c5d81610df0565b82525050565b6000610c6e82610dc2565b610c788185610dcd565b9350610c88818560208601610e35565b610c9181610fb5565b840191505092915050565b610ca581610e1c565b82525050565b60006020820190508181036000830152610cc58184610c63565b905092915050565b6000602082019050610ce26000830184610c9c565b92915050565b600060e082019050610cfd600083018a610c9c565b8181036020830152610d0f8189610c63565b90508181036040830152610d238188610c63565b90508181036060830152610d378187610c63565b9050610d466080830186610c9c565b610d5360a0830185610c45565b610d6060c0830184610c54565b98975050505050505050565b6000610d76610d87565b9050610d828282610e9a565b919050565b6000604051905090565b600067ffffffffffffffff821115610dac57610dab610f72565b5b610db582610fb5565b9050602081019050919050565b600081519050919050565b600082825260208201905092915050565b6000610de982610dfc565b9050919050565b60008115159050919050565b600073ffffffffffffffffffffffffffffffffffffffff82169050919050565b6000819050919050565b82818337600083830152505050565b60005b83811015610e53578082015181840152602081019050610e38565b83811115610e62576000848401525b50505050565b60006002820490506001821680610e8057607f821691505b60208210811415610e9457610e93610f43565b5b50919050565b610ea382610fb5565b810181811067ffffffffffffffff82111715610ec257610ec1610f72565b5b80604052505050565b6000610ed682610e1c565b91507fffffffffffffffffffffffffffffffffffffffffffffffffffffffffffffffff821415610f0957610f08610f14565b5b600182019050919050565b7f4e487b7100000000000000000000000000000000000000000000000000000000600052601160045260246000fd5b7f4e487b7100000000000000000000000000000000000000000000000000000000600052602260045260246000fd5b7f4e487b7100000000000000000000000000000000000000000000000000000000600052604160045260246000fd5b600080fd5b600080fd5b600080fd5b600080fd5b6000601f19601f8301169050919050565b610fcf81610e1c565b8114610fda57600080fd5b5056fea2646970667358221220b494179eb0aa0c0879f2fdc53e0f089e36abe62108f6d5cb07464792f8f0358464736f6c63430008070033",
  "immutableReferences": {},
  "source": "//SPDX-License-Identifier: MIT\npragma solidity ^0.8.7;\n\ncontract Marketplace {\n    string public name;\n    uint public productCount = 0;\n    mapping(uint => Product) public products;\n\n    struct Product {\n        uint id;\n        string name;\n        string nameimg;\n        string desc;\n        uint price;\n        address payable owner;\n        bool purchased;\n    }\n\n    event ProductCreated(\n        uint id,\n        string name,\n        string nameimg,\n        string desc,\n        uint price,\n        address payable owner,\n        bool purchased\n    );\n\n    event ProductPurchased(\n        uint id,\n        string name,\n        string nameimg,\n        string desc,\n        uint price,\n        address payable owner,\n        bool purchased\n    );\n\n    constructor() {\n        name = \" Marketplace\";\n    }\n\n    function createProduct(string memory _name,string memory _nameimg,string memory _desc, uint _price) public {\n        // Require a valid name\n        require(bytes(_name).length > 0);\n        // Require a valid price\n        require(_price > 0);\n        // Increment product count\n        productCount ++;\n        // Create the product\n        products[productCount] = Product(productCount, _name,_nameimg,_desc, _price, payable(msg.sender), false);\n        // Trigger an event\n        emit ProductCreated(productCount, _name,_nameimg,_desc, _price, payable(msg.sender), false);\n    }\n\n    function purchaseProduct(uint _id) public payable {\n        // Fetch the product\n        Product memory _product = products[_id];\n        // Fetch the owner\n        address payable _seller = _product.owner;\n        // Make sure the product has a valid id\n        require(_product.id > 0 && _product.id <= productCount);\n        // Require that there is enough Ether in the transaction\n        require(msg.value >= _product.price);\n        // Require that the product has not been purchased already\n        require(!_product.purchased);\n        // Require that the buyer is not the seller\n        require(_seller != msg.sender);\n        // Transfer ownership to the buyer\n        _product.owner = payable(msg.sender);\n        // Mark as purchased\n        _product.purchased = true;\n        // Update the product\n        products[_id] = _product;\n        // Pay the seller by sending them Ether\n        payable(address(_seller)).transfer(msg.value);\n        // Trigger an event\n        emit ProductPurchased(productCount, _product.name,_product.nameimg,_product.desc, _product.price, payable(msg.sender), true);\n    }\n}\n",
  "sourcePath": "C:\\Users\\12mohmd7\\Downloads\\marketplace-moh-fc-main        file for marketplace\\marketplace-moh-fc-main\\src\\contracts\\Marketplace.sol",
  "compiler": {
    "name": "solc",
    "version": "0.8.7+commit.e28d00a7.Emscripten.clang"
  },
  "schemaVersion": "3.4.4",
  "updatedAt": "2023-04-12T19:26:32.563Z",
  "devdoc": {
    "kind": "dev",
    "methods": {},
    "version": 1
  },
  "userdoc": {
    "kind": "user",
    "methods": {},
    "version": 1
  }
}